:020000040800F2
:10000000782C0020CD5E0008B95E0008BB5E0008B9
:10001000BD5E0008BF5E0008C15E00080000000071
:10002000000000000000000000000000C35E0008A7
:10003000C55E000800000000C75E0008C95E000839
:100040000D5F0008115F0008155F0008195F0008C8
:100050001D5F0008215F0008255F0008295F000878
:100060002D5F0008315F0008355F0008395F000828
:100070003D5F0008415F0008455F0008495F0008D8
:100080004D5F0008515F0008555F0008595F000888
:100090005D5F0008615F0008655F0008695F000838
:1000A0006D5F0008715F0008755F0008795F0008E8
:1000B0007D5F0008815F0008855F0008895F000898
:1000C0008D5F0008915F0008955F0008995F000848
:1000D0009D5F0008A15F0008A7590008274200089B
:1000E000AD5F0008B15F0008B55F0008B95F0008A8
:1000F000BD5F0008C15F0008C55F0008C95F000858
:10010000CD5F0008D15F0008F9450008D95F0008FD
:10011000DD5F0008E15F000823560008CB5C0008A3
:10012000F5330008F15F0008F55F0008F95F00088B
:10013000FD5F000801600008056000080960000814
:100140000D600008116000081560000819600008C3
:100150001D60000821600008256000082960000873
:100160002D60000831600008356000083960000823
:100170003D600008416000084560000849600008D3
:100180004D60000800B583B04FF4807000900020EF
:100190008DF8040001208DF8070000A9DFF84C0A53
:1001A00002F094FF0220009001208DF8040000204E
:1001B0008DF8060002208DF8050000208DF807005C
:1001C00000A9DFF82C0A02F081FF0420009000A9AA
:1001D000DFF81C0A02F07AFF0820009000A9DFF87F
:1001E000100A02F073FF4FF48060009000A9DFF85E
:1001F000000A02F06BFF4FF41040009000A9DFF8F6
:10020000EC0902F063FF4FF40050009000A9DFF802
:10021000E00902F05BFF4FF40050009000208DF8E1
:10022000040001208DF8070000A9DFF8C80902F0DA
:100230004DFF4FF48070009000A9DFF8BC0902F078
:1002400045FF4FF48040009000A9DFF8AC0902F0B0
:100250003DFF4FF48040009000A9DFF89C0902F0B8
:1002600035FF4FF4A060009000A9DFF8FC0A02F00F
:100270002DFF4FF4C050009000A9DFF8EC0A02F007
:1002800025FF4FF4C040009000A9DFF8DC0A02F01F
:100290001DFF4FF40040009000A9DFF8CC0A02F0E7
:1002A00015FF0420009001208DF8040000208DF837
:1002B000060002208DF8050000208DF8070000A937
:1002C000DFF8A40A02F002FF0820009000A9DFF87E
:1002D000980A02F0FBFE1020009000A9DFF8880ABF
:1002E00002F0F4FE4020009000A9DFF87C0A02F042
:1002F000EDFE07BD80B5FFF745FF0020DFF8FC18D5
:1003000008600020DFF8F81808600020DFF85C1AA9
:1003100008600020DFF8581A08600020DFF8541A3F
:1003200008600020DFF8501A08600020DFF84C1A3F
:1003300008600020DFF8481A08600020DFF8441A3F
:1003400008600020DFF8401A0860DFF8400A00F07B
:100350000EFB00F04BFB01BDDFF8340A0068401CC7
:10036000DFF82C1A0860DFF82C0A0068401CDFF860
:10037000241A0860DFF8200A0068002806D0DFF899
:10038000180A0068401EDFF8101A0860DFF80C0A2F
:100390000068002806D0DFF8040A0068401EDFF875
:1003A000FC190860704780B5DFF8E4090068DFF8E1
:1003B000F01988420BD30020DFF8D4190860DFF869
:1003C000E409006850F00100DFF8D8190860DFF890
:1003D000C8090068022805D26420DFF8BC1908604B
:1003E00002F0FBFF01BD80B500F016F800F014FD2F
:1003F00000F060FBDFF8B009006800280BD1002096
:10040000DFF88C190860DFF89C09006850F00100E3
:10041000DFF89019086001BDDFF8780900680A2844
:10042000C0F0A4820020DFF86C190860DFF87C09B6
:100430000068012819D1DFF8C80700680A282DD202
:10044000DFF8BC070068401CDFF8B4170860DFF86D
:10045000B00700680A2821D3DFF8A007006850F031
:100460000100DFF89817086018E0DFF894070068CB
:10047000002813D0DFF888070068401EDFF88017D7
:100480000860DFF87C070068002807D1DFF86C07F8
:10049000006840084000DFF864170860DFF81009C2
:1004A0000068012819D1DFF8C40800680A282DD295
:1004B000DFF8B8080068401CDFF8B0180860DFF803
:1004C000AC0800680A2821D3DFF83007006850F034
:1004D0000200DFF82817086018E0DFF890080068CD
:1004E000002813D0DFF884080068401EDFF87C186D
:1004F0000860DFF878080068002807D1DFF8FC06FC
:10050000006830F00200DFF8F4160860DFF8A40895
:100510000068012819D1DFF8580800680A282DD290
:10052000DFF84C080068401CDFF844180860DFF86A
:10053000400800680A2821D3DFF8C006006850F0A0
:100540000400DFF8B816086018E0DFF82408006837
:10055000002813D0DFF818080068401EDFF81018D4
:100560000860DFF80C080068002807D1DFF88C0667
:10057000006830F00400DFF884160860DFF83808FF
:100580000068012819D1DFF8EC0700680A282DD28D
:10059000DFF8E0070068401CDFF8D8170860DFF8D4
:1005A000D40700680A2821D3DFF85006006850F00D
:1005B0000800DFF84816086018E0DFF8B8070068A0
:1005C000002813D0DFF8AC070068401EDFF8A4173E
:1005D0000860DFF8A0070068002807D1DFF81C06D4
:1005E000006830F00800DFF814160860DFF8CC0768
:1005F0000068012819D1DFF8800700680A282DD289
:10060000DFF874070068401CDFF86C170860DFF83B
:10061000680700680A2821D3DFF8E005006850F079
:100620001000DFF8D815086018E0DFF84C07006804
:10063000002813D0DFF840070068401EDFF83817A5
:100640000860DFF834070068002807D1DFF8AC0540
:10065000006830F01000DFF8A4150860DFF86007CC
:100660000068012819D1DFF8140700680A282DD284
:10067000DFF808070068401CDFF800170860DFF8A3
:10068000FC0600680A2821D3DFF87005006850F0E6
:100690002000DFF86815086018E0DFF8E006006861
:1006A000002813D0DFF8D4060068401EDFF8CC160F
:1006B0000860DFF8C8060068002807D1DFF83C05AD
:1006C000006830F02000DFF834150860DFF8F40629
:1006D0000068012819D1DFF8A80600680A282DD281
:1006E000DFF89C060068401CDFF894160860DFF80D
:1006F000900600680A2821D3DFF80005006850F052
:100700004000DFF8F814086018E0DFF874060068AD
:10071000002813D0DFF868060068401EDFF8601676
:100720000860DFF85C060068002807D1DFF8CC0419
:10073000006830F04000DFF8C4140860DFF8880675
:100740000068002819D1DFF83C0600680A282DD27D
:10075000DFF830060068401CDFF828160860DFF874
:10076000240600680A2821D3DFF89004006850F0BE
:100770008000DFF88814086018E0DFF808060068D9
:10078000002813D0DFF8FC050068401EDFF8F415E0
:100790000860DFF8F0050068002807D1DFF85C0486
:1007A000006830F08000DFF854140860DFF81C06A1
:1007B0000068002819D1DFF8180600680A282DD231
:1007C000DFF80C060068401CDFF804160860DFF84C
:1007D000000600680A2821D3DFF82004006850F4DE
:1007E0008070DFF81814086018E0DFF8E40500688E
:1007F000002813D0DFF8D8050068401EDFF8D015B8
:100800000860DFF8CC050068002807D1DFF8EC03AA
:10081000006830F48070DFF8E4130860DFF8B40596
:100820000068002819D1DFF8B00500680A282DD229
:10083000DFF8A4050068401CDFF89C150860DFF8AD
:10084000980500680A2821D3DFF8B003006850F447
:100850000070DFF8A813086018E0DFF87C05006876
:10086000002813D0DFF870050068401EDFF8681517
:100870000860DFF864050068002807D1DFF87C0312
:10088000006830F40070DFF874130860DFF84C057E
:100890000068002819D1DFF8480500680A282DD221
:1008A000DFF83C050068401CDFF834150860DFF80D
:1008B000300500680A2821D3DFF84003006850F4AF
:1008C0008060DFF83813086018E0DFF8140500686E
:1008D000002813D0DFF808050068401EDFF8001577
:1008E0000860DFF8FC040068002807D1DFF80C037B
:1008F000006830F48060DFF804130860DFF8E40477
:100900000068002819D1DFF8E00400680A282DD219
:10091000DFF8D4040068401CDFF8CC140860DFF86E
:10092000C80400680A2821D3DFF8D002006850F418
:100930000060DFF8C812086018E0DFF8AC04006857
:10094000002813D0DFF8A0040068401EDFF89814D8
:100950000860DFF894040068002807D1DFF89C02E3
:10096000006830F40060DFF894120860704770B5DA
:1009700004000E25002632002900200002F044FF6A
:100980004FF4AF70DFF8041408800A20DFF8FC137E
:1009900048800520DFF8F41388800420DFF8EC138A
:1009A000C88070BD70B4B0F900506D1A2B00B0F95A
:1009B00008505D1B2C00B0F90850ADB2B3EB4505F3
:1009C000B0F90A6075192A000589458103814588B7
:1009D000A4B286889BB203FB06F304FB0533C088F0
:1009E00092B202FB003000B270BC704710B58AB002
:1009F00000244FF47A70DFF8F413088001210120FD
:100A000002F0DBFF0121022002F0C8FF0820009065
:100A100002208DF8040003208DF8050000208DF8D9
:100A2000060001208DF8070000A9724802F04EFB75
:100A3000012203216F4802F0A2FBDFF8B403006833
:100A40004008DFF8B013B0FBF1F0401E040040F2A4
:100A5000CF700390ADF808400020ADF810000020E2
:100A6000ADF80A0002A95FF0804003F0B5F86020FD
:100A7000ADF814000120ADF81600DFF8700300880F
:100A800007900020ADF8200005A95FF0804003F03A
:100A9000F6F808215FF0804003F096F901215FF03D
:100AA000804003F0D0F801215FF0804003F0D9F8D6
:100AB0000AB010BD10B5DFF8D0020068002802D0DF
:100AC000012842D08EE0DFF830030068C0F3400018
:100AD000002839D0DFF82003006830F00200DFF88A
:100AE00018130860DFF81403008803F08AFA040082
:100AF000DFF89802B0F9000024B2844219DADFF876
:100B00008C02B0F9000024B2001B332805DB4FF43F
:100B1000FA60DFF8EC12086016E0DFF86C0200689B
:100B2000401CDFF8641208600020DFF8D81208606B
:100B30000AE0DFF85802B0F9000024B2844203DB77
:100B40000020DFF8BC1208604FE0DFF8AC0200685C
:100B5000C0F34000002844D0DFF89C02006830F069
:100B60000200DFF894120860DFF89002008803F0BA
:100B700048FADFF894120880DFF88C02018889B205
:100B80008248FFF70FFFDFF884120880DFF8740255
:100B90000068401CDFF86C120860DFF8680200682B
:100BA0000A281ED3DFF86402B0F9000040F2CF71CA
:100BB000884204DB40F2CF70DFF850120880DFF883
:100BC0004C02B0F90000022803DA0120DFF83C12E1
:100BD00008808E48B0F900008949086000206A4901
:100BE000086002E000206849086010BD0000024073
:100BF0000008024000040240000C02400C0C0020DF
:100C0000DC0B00202DE9F0414FF47A760027DFF865
:100C100000823A003100404602F0F6FDFF207C4998
:100C2000087080207A494870002079498870032034
:100C30007749C87065207649087100200400482C67
:100C400072D274482101085871490C2202FB041128
:100C50004871704821010858000A6D490C2202FBB6
:100C6000041188716B4821010858000C68490C2256
:100C700002FB0411C871674810EB04104068644916
:100C80000C2202FB04110872624810EB0410406849
:100C9000000A5F490C2202FB041148725D4810EB08
:100CA00004104068000C5A490C2202FB041188729F
:100CB000584810EB0410806855490C2202FB0411BF
:100CC000C872544810EB04108068000A50490C2286
:100CD00002FB041108734F4810EB04108068000CED
:100CE0004B490C2202FB041148734A4810EB0410D4
:100CF000C06847490C2202FB04118873454810EB79
:100D00000410C068000A42490C2202FB0411C87397
:100D1000404810EB0410C068000C3D490C2202FB57
:100D200004110874641C8AE70020050000200400F8
:100D3000B4F5597F09D807222900C9B23448205C8C
:100D400003F096F90500641CF2E7314880F865531A
:100D50000D202F4981F8660340F267312C4803F0DB
:100D600043FABDE8F081000000100240E00B0020D3
:100D7000E40B0020E80B0020EC0B0020F00B00201F
:100D8000F40B0020F80B0020240C002000000020B1
:100D9000180C0020D80B00201C0C0020140C002084
:100DA000804F1200200C00202002404220024242CC
:100DB000280242422C024242300242423402424263
:100DC000380242423C02424238824142348241422D
:100DD000FC0B002020824142000C00203C8240425B
:100DE000040C002034824042080C00205E0C0020DD
:100DF00020000020002D3101D40B00204C0C0020DD
:100E000038000040280C00205C0C00205A0C002008
:100E1000AC0400202C00002080B5DFF8A408007886
:100E2000C00742F13F81DFF89C080068002800F00D
:100E30008B81012800F09A81022800F0A581032807
:100E400000F0B681042800F0C681052800F0D081AA
:100E50000A2800F0DB810B2800F0F1810C2800F05B
:100E600000820D2800F02A820E2800F040820F2810
:100E700000F04F82102800F07782112800F08B825A
:100E8000122800F0B382132800F0C782142800F063
:100E9000D482192800F0FA821A2800F003831E2851
:100EA00000F00A831F2800F01E83202800F02B8307
:100EB000212800F06F83222800F08383232800F08C
:100EC0009083242800F0D483252800F0E883262886
:100ED00000F0FA83272800F04084282800F0568488
:100EE000292800F065842D2800F0A8842E2800F021
:100EF000B384322800F0BB84332800F0D184342836
:100F000000F0E084352800F02A85362800F040857E
:100F1000372800F04F85382800F09985392800F0EF
:100F2000AF853A2800F0BE853B2800F008863C28B3
:100F300000F01E863D2800F02D86412800F07486C2
:100F4000422800F07F86462800F08786472800F078
:100F50009C86482800F0A986492800F0F0864A2897
:100F600000F003874B2800F010874C2800F04787DB
:100F70004D2800F05F874E2800F06C874F2800F066
:100F8000A387502800F0B687512800F0C387552862
:100F900000F0F787562801F002805A2801F00D80F2
:100FA0005B2801F021805C2801F030805D2801F091
:100FB0007B805E2801F091805F2801F0A08060288E
:100FC00001F0E880612801F0FC80622801F00981CD
:100FD000632801F05181642801F06581652801F0E2
:100FE0007281692801F0B8816A2801F0C1816E28F8
:100FF00001F0C8816F2801F0DC81702801F0E981DF
:10100000712801F03182722801F04582732801F0C5
:101010005582742801F09F82752801F0B5827628E8
:1010200001F0C482772801F00E83782801F0248330
:10103000792801F033837D2801F07A837E2801F03E
:101040008583822801F08D83832801F0A38384287F
:1010500001F0B283852801F0FC83862801F0128418
:10106000872801F02184882801F06A84892801F00A
:101070007F848A2801F08D848B2801F0D6848C2807
:1010800001F0EB848D2801F0F984912801F03F856F
:10109000922801F04985962801F05085972801F0A3
:1010A0006485982801F07085992801F0A6859A2812
:1010B00001F0B8859B2801F0C4859C2801F0FA85D1
:1010C0009D2801F00C869E2801F018869F2801F0CB
:1010D0004E86A02801F06086A12801F06C86A52824
:1010E00001F0A286A62801F0AA86AA2801F0AF8600
:1010F000AB2801F0C686AC2801F0D086AD2801F0FF
:10110000EB86AE2801F0FB86AF2801F00587B028FA
:1011100001F02087B12801F03087B22801F03A872A
:10112000B32801F05587B42801F06587B52801F090
:101130006F87B92801F08B87BA2801F09287BE2803
:1011400001F09C8701F0ABBF42F21070DFF8541E33
:101150000860DFF8D80C03F0A9F8DFF8680500682C
:10116000401CDFF86015086001F09CBFDFF8340E0A
:101170000068022806D2DFF84C050068401CDFF842
:101180004415086001F08EBFDFF838050068401C88
:10119000DFF830150860DFF8980C0068C0F38000B5
:1011A000002803D10021012003F066FB01F07ABF83
:1011B000DFF87C0C0068C0F38000002809D0DFF85D
:1011C00004050068401CDFF8FC140860012003F0EF
:1011D00009FB01F067BF0021002003F04DFBDFF8A1
:1011E000E4040068401CDFF8DC14086001F05ABF1A
:1011F000DFF83C0C0078C00706D5002003F0F2FAB7
:101200000A20DFF8C014086001F04CBF4FF4806181
:10121000DFF8280E01F0B1FF4FF40061DFF81C0E7B
:1012200001F0ABFF0A20DFF87C1D0860DFF89404B2
:101230000068401CDFF88C14086001F033BFDFF851
:10124000640D006802280AD27820DFF8581D086073
:10125000DFF870040068401CDFF86814086001F0D3
:1012600021BFDFF8400D0068022825D2DFF8D00D3D
:101270000068DFF8D01D0860DFF8C40D8068DFF873
:10128000C41D0862DFF8B80D0069DFF8B81D0864F6
:10129000DFF8AC0D8069DFF8AC1D0866DFF8A00D43
:1012A000006ADFF8A01DC1F88000DFF818040068AC
:1012B000401CDFF81014086001F0F4BE4FF48061A8
:1012C000DFF8780D01F059FF4FF40061DFF86C0D85
:1012D00001F051FF0A20DFF8CC1C0860DFF8E403BE
:1012E0000068401CDFF8DC13086001F0DBBEDFF8AB
:1012F000B40C006802280AD27820DFF8A81C086025
:10130000DFF8C0030068401CDFF8B813086001F084
:10131000C9BEDFF8900C0068022823D2DFF8200D48
:101320000068DFF8201D4860DFF8140D8068DFF8E2
:10133000141D4862DFF8080D0069DFF8081D4864D5
:10134000DFF8FC0C8069DFF8FC1C4866DFF8F00C65
:10135000006ADFF8F01CC1F88400DA480068401C1D
:10136000D849086001F09EBE4FF48061DFF8CC0CD4
:1013700001F001FF4FF40061DFF8C00C01F0FDFE49
:101380007820DFF8201C0860CE480068401CCD495A
:10139000086001F087BEDFF80C0C0068022823D239
:1013A000DFF89C0C0068DFF89C1C8860DFF8900C6C
:1013B0008068DFF8901C8862DFF8840C0069DFF831
:1013C000841C8864DFF8780C8069DFF8781C8866F4
:1013D000DFF86C0C006ADFF86C1CC1F88800B948B3
:1013E0000068401CB749086001F05CBE4FF48061A2
:1013F000DFF8480C01F0BFFE4FF40061DFF83C0C51
:1014000001F0B9FE0A20DFF89C1B0860AD480068B7
:10141000401CAC49086001F045BEDFF8880B00684D
:10142000022808D27820DFF87C1B0860A5480068F5
:10143000401CA449086001F035BEDFF8680B006865
:10144000022821D2DFF8F80B0068DFF8F81BC8602B
:10145000DFF8EC0B8068DFF8EC1BC862DFF8E00B0C
:101460000069DFF8E01BC864DFF8D40B8069DFF89F
:10147000D41BC866DFF8C80B006ADFF8C81BC1F8C8
:101480008C0019208F49086001F00CBE44F2A011B5
:10149000002003F0F1F98B480068401C894908607E
:1014A00001F000BEDFF8A00B0068002802D11E206A
:1014B0008449086001F0F6BD4FF48061DFF87C0BD1
:1014C00001F05BFE4FF40061DFF8700B01F055FE98
:1014D0000A20DFF8D01A08607A480068401C794971
:1014E000086001F0DFBDDFF8BC0A0068022808D2FE
:1014F0007820DFF8B01A086072480068401C714913
:10150000086001F0CFBDDFF89C0A006802283FD2D6
:10151000DFF82C0B4068DFF82C1B0861DFF8200B8C
:10152000C068DFF8201B0863DFF8140B4069DFF8A0
:10153000141B0865DFF8080BC069DFF8081B086793
:10154000DFF8FC0A0068DFF8FC1AC1F89000DFF849
:10155000F00A8068DFF8EC1AC1F8B000DFF8E00AA2
:101560000069DFF8E01AC1F8D000DFF8D40A80691A
:10157000DFF8D01AC1F8F000DFF8C40A006ADFF81B
:10158000C41AC1F810014F480068401C4D4908605A
:1015900001F088BD4FF48061DFF8A00A01F0EDFD95
:1015A0004FF40061DFF8940A01F0E5FD0A20DFF84E
:1015B000F419086043480068401C4249086001F083
:1015C00071BDDFF8E0090068022808D27820DFF852
:1015D000D41908603B480068401C3A49086001F093
:1015E00061BDDFF8C009006802283FD2DFF8500A69
:1015F0004068DFF8501A4861DFF8440AC068DFF835
:10160000441A4863DFF8380A4069DFF8381A486539
:10161000DFF82C0AC069DFF82C1A4867DFF8200AC7
:101620000068DFF8201AC1F89400DFF8140A806817
:10163000DFF8101AC1F8B400DFF8040A0069DFF817
:10164000041AC1F8D400DFF8F8098069DFF8F4194A
:10165000C1F8F400DFF8E809006ADFF8E819C1F81A
:10166000140118480068401C1649086001F01ABDB2
:101670004FF48061DFF8C40901F07DFD4FF4006193
:10168000DFF8B80901F079FD0A20DFF818190860C1
:101690000C480068401C0B49086001F003BDDFF8EE
:1016A00004090068022808D27820DFF8F8180860DA
:1016B00004480068401C0349086001F0F3BC00BF07
:1016C000200C0020100C0020DFF8D8080068022849
:1016D00041D2DFF86C094068DFF868198861DFF8EB
:1016E0006009C068DFF85C198863DFF85409406955
:1016F000DFF850198865DFF84809C069DFF8441938
:101700008867DFF83C090068DFF83819C1F89800ED
:10171000DFF82C098068DFF82C19C1F8B800DFF871
:1017200020090069DFF81C19C1F8D800DFF810099A
:101730008069DFF81019C1F8F800DFF80409006AC1
:10174000DFF80019C1F81801DFF86C0D0068401CC3
:10175000DFF8641D086001F0A5BC4FF48061DFF87C
:10176000DC0801F008FD4FF40061DFF8D00801F05B
:1017700002FD0A20DFF82C180860DFF83C0D006835
:10178000401CDFF8341D086001F08CBCDFF8140841
:10179000006802280AD27820DFF808180860DFF80D
:1017A000180D0068401CDFF8101D086001F07ABCBD
:1017B000DFF8F007006802283ED2DFF884084068AE
:1017C000DFF88018C861DFF87808C068DFF874189F
:1017D000C863DFF86C084069DFF86818C865DFF88F
:1017E0006008C069DFF85C18C867DFF85408006853
:1017F000DFF85018C1F89C00DFF844088068DFF873
:101800004418C1F8BC00DFF838080069DFF8341864
:10181000C1F8DC00DFF828088069DFF82818C1F873
:10182000FC00DFF81C08006ADFF81818C1F81C017A
:101830002D20DFF8841C086001F034BC44F2A011B4
:10184000002003F019F8DFF8700C0068401CDFF886
:10185000681C086001F026BCDFF8EC07006800286F
:1018600003D13220DFF8501C086001F01BBC4FF49C
:101870008061DFF8C80701F080FC4FF40061DFF8F9
:10188000BC0701F07AFC0A20DFF818170860DFF8BF
:10189000280C0068401CDFF8201C086001F002BC26
:1018A000DFF80007006802280AD27820DFF8F41673
:1018B0000860DFF8040C0068401CDFF8FC1B0860BF
:1018C00001F0F0BBDFF8DC060068022845D2DFF843
:1018D00070074068DFF86C17C1F8A000DFF86007F8
:1018E000C068DFF86017C1F8C000DFF8540740692E
:1018F000DFF85017C1F8E000DFF84407C069DFF8EF
:101900004417C1F80001DFF838070068DFF8341722
:10191000C1F82001DFF828078068DFF82817C1F830
:101920004001DFF81C070069DFF81817C1F86001F3
:10193000DFF80C078069DFF80C17C1F88001DFF8C9
:101940000007006ADFF8FC16C1F8A001DFF8680B99
:101950000068401CDFF8601B086001F0A3BB4FF477
:101960008061DFF8D80601F008FC4FF40061DFF871
:10197000CC0601F000FC0A20DFF828160860DFF82A
:10198000380B0068401CDFF8301B086001F08ABB90
:10199000DFF81006006802280AD27820DFF8041663
:1019A0000860DFF8140B0068401CDFF80C1B0860AF
:1019B00001F078BBDFF8EC050068022845D2DFF8BB
:1019C00080064068DFF87C16C1F8A400DFF87006D6
:1019D000C068DFF87016C1F8C400DFF8640640691B
:1019E000DFF86016C1F8E400DFF85406C069DFF8DC
:1019F0005416C1F80401DFF848060068DFF8441601
:101A0000C1F82401DFF838068068DFF83816C1F81D
:101A10004401DFF82C060069DFF82816C1F86401DC
:101A2000DFF81C068069DFF81C16C1F88401DFF8B6
:101A30001006006ADFF80C16C1F8A401DFF8780A76
:101A40000068401CDFF8701A086001F02BBB4FF4EF
:101A50008061DFF8E80501F08EFB4FF40061DFF8EC
:101A6000DC0501F08AFB0A20DFF838150860DFF892
:101A7000480A0068401CDFF8401A086001F012BBF9
:101A8000DFF82005006802280AD27820DFF8141554
:101A90000860DFF8240A0068401CDFF81C1A0860A0
:101AA00001F000BBDFF8FC040068022845D2DFF833
:101AB00090054068DFF88C15C1F8A800DFF88005B4
:101AC000C068DFF88015C1F8C800DFF87405406908
:101AD000DFF87015C1F8E800DFF86405C069DFF8C9
:101AE0006415C1F80801DFF858050068DFF85415DF
:101AF000C1F82801DFF848058068DFF84815C1F80B
:101B00004801DFF83C050069DFF83815C1F86801C5
:101B1000DFF82C058069DFF82C15C1F88801DFF8A3
:101B20002005006ADFF81C15C1F8A801DFF8880954
:101B30000068401CDFF88019086001F0B3BA4FF468
:101B40008061DFF8F80401F016FB4FF40061DFF864
:101B5000EC0401F010FB0A20DFF848140860DFF8FD
:101B600058090068401CDFF85019086001F09ABA63
:101B7000DFF83004006802280AD27820DFF8241445
:101B80000860DFF834090068401CDFF82C19086091
:101B900001F088BADFF80C040068022842D2DFF8AE
:101BA000A0044068DFF89C14C1F8AC00DFF8900492
:101BB000C068DFF89014C1F8CC00DFF884044069F5
:101BC000DFF88014C1F8EC00DFF87404C069DFF8B6
:101BD0007414C1F80C01DFF868040068DFF86414BD
:101BE000C1F82C01DFF858048068DFF85814C1F8F8
:101BF0004C01DFF84C040069DFF84814C1F86C01AF
:101C0000DFF83C048069DFF83C14C1F88C01DFF890
:101C10003004006ADFF82C14C1F8AC014120DFF871
:101C20009818086001F03EBA44F2A011002002F0BA
:101C300023FEDFF884080068401CDFF87C18086089
:101C400001F030BADFF800040068002803D1462014
:101C5000DFF86418086001F025BA4FF48061DFF8FE
:101C6000DC0301F08AFA4FF40061DFF8D00301F0E1
:101C700084FA0A20CB490860DFF83C080068401C61
:101C8000DFF83418086001F00DBAC6480068022871
:101C900009D27820C3490860DFF81C080068401C9E
:101CA000DFF81418086001F0FDB9BE48006802288A
:101CB00043D2DFF88C034068DFF88813C1F83001A5
:101CC000DFF87C03C068DFF87C13C1F85001DFF84F
:101CD00070034069DFF86C13C1F87001DFF860032E
:101CE000C069DFF86013C1F89001DFF854030068A1
:101CF000DFF85013C1F8B001DFF844038068DFF863
:101D00004413C1F8D001DFF838030069DFF8341359
:101D1000C1F8F001DFF828038069DFF82813C1F863
:101D20001002C748006AC749C1F83002DFF88807C7
:101D30000068401CDFF88017086001F0B3B94FF469
:101D40008061BE4801F019FA4FF40061BB4801F010
:101D500012FA0A2093490860DFF85C070068401C0B
:101D6000DFF85417086001F09DB98E48006802281A
:101D700009D278208B490860DFF83C070068401CD6
:101D8000DFF83417086001F08DB986480068022832
:101D900033D2AB484068AB49C1F83401A848C068A9
:101DA000A849C1F85401A6484069A649C1F8740180
:101DB000A348C069A349C1F89401A1480068A1499A
:101DC000C1F8B4019E4880689E49C1F8D4019C487E
:101DD00000699C49C1F8F401994880699949C1F8A2
:101DE00014029748006A9749C1F83402DFF8C80620
:101DF0000068401CDFF8C016086001F053B94FF4CA
:101E000080618E4801F0B7F94FF400618B4801F012
:101E1000B4F90A2063490860DFF89C060068401C9A
:101E2000DFF89416086001F03DB900BF885E000835
:101E30000C0C00205B480068022809D27820594920
:101E40000860DFF874060068401CDFF86C16086054
:101E500001F028B953480068022833D27848406816
:101E60007849C1F838017648C0687649C1F8580108
:101E7000734840697349C1F878017148C069714974
:101E8000C1F898016E4800686E49C1F8B8016C4805
:101E900080686C49C1F8D801694800696949C1F88E
:101EA000F801674880696749C1F818026448006A08
:101EB0006449C1F83802DFF800060068401CDFF80A
:101EC000F815086001F0EEB84FF480615B4801F04E
:101ED00052F94FF40061594801F04DF97820314929
:101EE0000860DFF8D4050068401CDFF8CC150860F6
:101EF00001F0D8B82B480068022809D27820294977
:101F00000860DFF8B4050068401CDFF8AC15086015
:101F100001F0C8B823480068022830D24848406819
:101F20004849C1F83C014648C0684649C1F85C01CF
:101F3000434840694349C1F87C014148C06941496F
:101F4000C1F89C013E4800683E49C1F8BC013C48CC
:101F500080683C49C1F8DC01394800693949C1F859
:101F6000FC01374880693749C1F81C023448006ACF
:101F70003449C1F83C025520DFF83C15086001F0F7
:101F800091B844F2A011002002F076FCDFF8280599
:101F90000068401CDFF82015086001F083B82A486B
:101FA00002E000BF140C00200068002803D15A2072
:101FB000DFF80415086001F075B84FF480611F4820
:101FC00001F0DBF84FF400611C4801F0D6F80A205C
:101FD000DFF8E81D0860DFF8E0040068401CDFF867
:101FE000D814086001F05EB8DFF8D00D0068022850
:101FF0000AD27820DFF8C41D0860DFF8BC0400684E
:10200000401CDFF8B414086001F04CB8DFF8AC0DE8
:102010000068022846D20A4840680A49C1F8C0014F
:102020000748C0680749C1F8E0010548406905490B
:10203000C1F800020248C069024907E0000C0240F2
:10204000940B00202C0000202C0C0020C1F8200252
:10205000DFF80C0E0068DFF80C1EC1F84002DFF854
:10206000000E8068DFF8FC1DC1F86002DFF8F00D9B
:102070000069DFF8F01DC1F88002DFF8E40D806927
:10208000DFF8E01DC1F8A002DFF8D40D006ADFF828
:10209000D41DC1F8C002DFF820040068401CDFF83E
:1020A0001814086000F0FEBF4FF48061DFF8B80D2F
:1020B00001F063F84FF40061DFF8AC0D01F05BF85C
:1020C0000A20DFF8F81C0860DFF8EC030068401C09
:1020D000DFF8E413086000F0E5BFDFF8E00C00680B
:1020E00002280AD27820DFF8D41C0860DFF8C80381
:1020F0000068401CDFF8C013086000F0D3BFDFF8B1
:10210000BC0C0068022843D2DFF8540D4068DFF8A9
:10211000541DC1F8C401DFF8480DC068DFF8441D44
:10212000C1F8E401DFF8380D4069DFF8381DC1F867
:102130000402DFF82C0DC069DFF8281DC1F8240265
:10214000DFF81C0D0068DFF81C1DC1F84402DFF841
:10215000100D8068DFF80C1DC1F86402DFF8000D77
:102160000069DFF8001DC1F88402DFF8F40C806913
:10217000DFF8F01CC1F8A402DFF8E40C006ADFF815
:10218000E41CC1F8C402CC480068401CCA4908607D
:1021900000F088BF4FF48061DFF8CC0C00F0EBFF5B
:1021A0004FF40061DFF8C00C00F0E7FF0A20DFF811
:1021B0000C1C0860C0480068401CBF49086000F063
:1021C00071BFDFF8F80B0068022808D27820DFF82A
:1021D000EC1B0860B8480068401CB749086000F074
:1021E00061BFDFF8D80B0068022843D2DFF8700C1B
:1021F0004068DFF8701CC1F8C801DFF8640CC068E3
:10220000DFF8601CC1F8E801DFF8540C4069DFF822
:10221000541CC1F80802DFF8480CC069DFF8441C00
:10222000C1F82802DFF8380C0068DFF8381CC1F864
:102230004802DFF82C0C8068DFF8281CC1F868021F
:10224000DFF81C0C0069DFF81C1CC1F88802DFF8FD
:10225000100C8069DFF80C1CC1F8A802DFF8000C34
:10226000006ADFF8001CC1F8C80293480068401CEF
:102270009149086000F016BF4FF48061DFF8E80B69
:1022800000F079FF4FF40061DFF8DC0B00F073FF22
:102290000A20DFF8281B086087480068401C864930
:1022A000086000F0FFBEDFF8140B0068022808D2B7
:1022B0007820DFF8081B08607F480068401C7E49D2
:1022C000086000F0EFBEDFF8F40A0068022841D28F
:1022D000DFF88C0B4068DFF88C1BC1F8CC01DFF80D
:1022E000800BC068DFF87C1BC1F8EC01DFF8700BD5
:1022F0004069DFF8701BC1F80C02DFF8640BC0699D
:10230000DFF8601BC1F82C02DFF8540B0068DFF81F
:10231000541BC1F84C02DFF8480B8068DFF8441BFF
:10232000C1F86C02DFF8380B0069DFF8381BC1F820
:102330008C02DFF82C0B8069DFF8281BC1F8AC0297
:10234000DFF81C0B006ADFF81C1BC1F8CC02692007
:102350005949086000F0A6BE44F2A011002002F026
:102360008BFA55480068401C5349086000F09ABE3B
:10237000DFF8340D0068002802D16E204E49086055
:1023800000F090BE4FF48061DFF8DC0A00F0F5FE4B
:102390004FF40061DFF8D00A00F0EFFE0A20DFF80A
:1023A0001C1A086044480068401C4349086000F05B
:1023B00079BEDFF8080A0068022808D27820DFF822
:1023C000FC1908603C480068401C3B49086000F06C
:1023D00069BEDFF8E8090068022843D2DFF8800A06
:1023E0004068DFF8801AC1F85002DFF8740AC0684C
:1023F000DFF8701AC1F87002DFF8640A4069DFF88C
:10240000641AC1F89002DFF8580AC069DFF8541A5C
:10241000C1F8B002DFF8480A0068DFF8481AC1F8CE
:10242000D002DFF83C0A8068DFF8381AC1F8F00201
:10243000DFF82C0A0069DFF82C1AC1F81003DFF866
:10244000200A8069DFF81C1AC1F83003DFF8100A8F
:10245000006ADFF8101AC1F8500317480068401CE2
:102460001549086000F01EBE4FF48061DFF8F809DE
:1024700000F083FE4FF40061DFF8EC0900F07BFE12
:102480000A20DFF8381908600B480068401C0A4928
:10249000086000F007BEDFF824090068022808D2AF
:1024A0007820DFF81819086003480068401C0249CA
:1024B000086000F0F7BD00BF100C0020DFF8FC083A
:1024C0000068022845D2DFF898094068DFF89419BF
:1024D000C1F85402DFF88809C068DFF88819C1F82C
:1024E0007402DFF87C094069DFF87819C1F89402BA
:1024F000DFF86C09C069DFF86C19C1F8B402DFF8C5
:1025000060090068DFF85C19C1F8D402DFF85009EF
:102510008068DFF85019C1F8F402DFF84409006957
:10252000DFF84019C1F81403DFF834098069DFF8D7
:102530003419C1F83403DFF82809006ADFF82419D8
:10254000C1F85403DFF8640B0068401CDFF85C1B23
:10255000086000F0A7BD4FF48061DFF80C0900F0BF
:102560000AFE4FF40061DFF8000900F006FE0A20C1
:10257000DFF848180860DFF8340B0068401CDFF80B
:102580002C1B086000F08EBDDFF8300800680228C0
:102590000AD27820DFF824180860DFF8100B0068F2
:1025A000401CDFF8081B086000F07CBDDFF80C0859
:1025B0000068022845D2DFF8A8084068DFF8A418B0
:1025C000C1F85802DFF89808C068DFF89818C1F819
:1025D0007802DFF88C084069DFF88818C1F89802A3
:1025E000DFF87C08C069DFF87C18C1F8B802DFF8B2
:1025F00070080068DFF86C18C1F8D802DFF86008CE
:102600008068DFF86018C1F8F802DFF85408006944
:10261000DFF85018C1F81803DFF844088069DFF8C4
:102620004418C1F83803DFF83808006ADFF83418B6
:10263000C1F85803DFF8740A0068401CDFF86C1A10
:10264000086000F02FBD4FF48061DFF81C0800F037
:1026500092FD4FF40061DFF8100800F08CFD0A20B5
:10266000DFF858170860DFF8440A0068401CDFF8FC
:102670003C1A086000F016BDDFF840070068022829
:102680000AD27820DFF834170860DFF8200A0068E3
:10269000401CDFF8181A086000F004BDDFF81C07C2
:1026A0000068022842D2DFF8B8074068DFF8B417A4
:1026B000C1F85C02DFF8A807C068DFF8A817C1F806
:1026C0007C02DFF89C074069DFF89817C1F89C028C
:1026D000DFF88C07C069DFF88C17C1F8BC02DFF89F
:1026E00080070068DFF87C17C1F8DC02DFF87007AC
:1026F0008068DFF87017C1F8FC02DFF86407006932
:10270000DFF86017C1F81C03DFF854078069DFF8B1
:102710005417C1F83C03DFF84807006ADFF8441794
:10272000C1F85C037D20DFF88419086000F0BABCB2
:1027300044F2A011002002F09FF8DFF87009006851
:10274000401CDFF86819086000F0ACBCDFF85809DD
:102750000068002803D18220DFF85019086000F0DB
:10276000A1BC4FF48061DFF8000700F006FD4FF4D4
:102770000061DFF8F40600F000FD0A20DFF83C16E7
:102780000860DFF828090068401CDFF8201908609D
:1027900000F088BCDFF82406006802280AD27820FE
:1027A000DFF818160860DFF804090068401CDFF83D
:1027B000FC18086000F076BCDFF80006006802280C
:1027C00045D2DFF89C064068DFF89816C1F8E002B1
:1027D000DFF88C06C068DFF88C16C1F80003DFF85C
:1027E00080064069DFF87C16C1F82003DFF8700628
:1027F000C069DFF87016C1F84003DFF864060068AE
:10280000DFF86016C1F86003DFF854068068DFF86F
:102810005416C1F88003DFF848060069DFF8441653
:10282000C1F8A003DFF838068069DFF83816C1F870
:10283000C003DFF82C06006ADFF82816C1F8E003B1
:10284000DFF868080068401CDFF86018086000F0D6
:1028500029BC4FF48061DFF8100600F08EFC4FF4C5
:102860000061DFF8040600F086FC0A20DFF84C1552
:102870000860DFF838080068401CDFF8301808608E
:1028800000F010BCDFF83405006802280AD2782076
:10289000DFF828150860DFF814080068401CDFF82E
:1028A0000C18086000F0FEBBDFF810050068022875
:1028B00045D2DFF8AC054068DFF8A815C1F8E4029E
:1028C000DFF89C05C068DFF89C15C1F80403DFF849
:1028D00090054069DFF88C15C1F82403DFF8800506
:1028E000C069DFF88015C1F84403DFF8740500689B
:1028F000DFF87015C1F86403DFF864058068DFF85D
:102900006415C1F88403DFF858050069DFF8541531
:10291000C1F8A403DFF848058069DFF84815C1F85D
:10292000C403DFF83C05006ADFF83815C1F8E4039A
:10293000DFF878070068401CDFF870170860B1E323
:102940004FF48061DFF8200500F015FC4FF40061C2
:10295000DFF8140500F011FC0A20DFF860140860AD
:10296000DFF848070068401CDFF84017086099E36B
:10297000DFF84804006802280AD27820DFF83C1407
:102980000860DFF828070068401CDFF8201708609F
:1029900088E3DFF828040068022845D2DFF8C00485
:1029A0004068DFF8C014C1F8E802DFF8B404C0687A
:1029B000DFF8B014C1F80803DFF8A4044069DFF8B9
:1029C000A414C1F82803DFF89804C069DFF8941450
:1029D000C1F84803DFF888040068DFF88814C1F8FC
:1029E0006803DFF87C048068DFF87814C1F8880396
:1029F000DFF86C040069DFF86C14C1F8A803DFF895
:102A000060048069DFF85C14C1F8C803DFF8500483
:102A1000006ADFF85014C1F8E803DFF89006006898
:102A2000401CDFF8881608603CE34FF48061DFF853
:102A3000380400F0A0FB4FF40061DFF82C0400F034
:102A40009AFB0A20DFF874130860DFF8600600685C
:102A5000401CDFF85816086024E3DFF860030068C4
:102A600002280AD27820DFF854130860DFF83C0609
:102A70000068401CDFF83416086013E3DFF83C03FD
:102A80000068022842D2DFF8D8034068DFF8D41388
:102A9000C1F8EC02DFF8C803C068DFF8C813C1F85A
:102AA0000C03DFF8BC034069DFF8B813C1F82C034E
:102AB000DFF8AC03C069DFF8AC13C1F84C03DFF8F2
:102AC000A0030068DFF89C13C1F86C03DFF89003E3
:102AD0008068DFF89013C1F88C03DFF88403006985
:102AE000DFF88013C1F8AC03DFF874038069DFF806
:102AF0007413C1F8CC03DFF86803006ADFF86413CD
:102B0000C1F8EC039120DFF8A4150860CAE244F292
:102B1000A011002001F0B0FEDFF890050068401C15
:102B2000DFF888150860BDE2DFF87C050068002842
:102B300003D19620DFF874150860B3E24FF480618A
:102B4000DFF8240300F019FB4FF40061DFF81803ED
:102B500000F013FB0A2099490860DFF8500500686F
:102B6000401CDFF8481508609CE294480068022881
:102B700009D2782091490860DFF830050068401CD0
:102B8000DFF8281508608DE28C480068022833D2EF
:102B9000B3484068B349C1F87003B148C068B1494F
:102BA000C1F89003AE484069AE49C1F8B003AC48E3
:102BB000C069AC49C1F8D003A9480068A949C1F867
:102BC000F003A7488068A749C1F81004A448006929
:102BD000A449C1F83004A2488069A249C1F8500450
:102BE0009F48006A9F49C1F87004DFF8C00400687C
:102BF000401CDFF8B814086054E24FF480619A4832
:102C000000F0BBFA4FF40061974800F0B4FA0A20D4
:102C10006A490860DFF894040068401CDFF88C14EF
:102C200008603FE265480068022809D278206349BD
:102C30000860DFF878040068401CDFF87014086052
:102C400030E25E480068022833D2854840688549F2
:102C5000C1F874038248C0688249C1F8940380486F
:102C600040698049C1F8B4037D48C0697D49C1F815
:102C7000D4037B4800687B49C1F8F4037848806836
:102C80007849C1F81404764800697649C1F83404DB
:102C9000734880697349C1F854047148006A7149E6
:102CA000C1F87404DFF804040068401CDFF8FC136A
:102CB0000860F7E14FF480616B4800F05CFA4FF474
:102CC0000061694800F059FA0A203C490860DFF8C1
:102CD000DC030068401CDFF8D4130860E2E13748E9
:102CE0000068022809D2782034490860DFF8BC0364
:102CF0000068401CDFF8B4130860D3E12F48006877
:102D0000022833D2564840685649C1F878035448DF
:102D1000C0685449C1F89803514840695149C1F805
:102D2000B8034F48C0694F49C1F8D8034C48006800
:102D30004C49C1F8F8034A4880684A49C1F8180468
:102D4000474800694749C1F8380445488069454902
:102D5000C1F858044248006A4249C1F87804DFF8D3
:102D60004C030068401CDFF8441308609AE14FF4FC
:102D700080613D4800F0FFF94FF400613A4800F0EF
:102D8000FAF90A200D490860DFF820030068401CAA
:102D9000DFF81813086085E108480068022809D2A6
:102DA000782006490860DFF804030068401CDFF85B
:102DB000FC12086076E1014802E000BF140C00201C
:102DC000006802282FD2264840682649C1F87C03B3
:102DD0002348C0682349C1F89C0321484069214920
:102DE000C1F8BC031E48C0691E49C1F8DC031C4879
:102DF00000681C49C1F8FC03194880681949C1F8EA
:102E00001C04174800691749C1F83C04144880693C
:102E10001449C1F85C041248006A1249C1F87C04E4
:102E2000A520A24908603DE144F2A011002001F074
:102E300023FD9E480068401C9C49086032E19A4886
:102E40000068002802D1AA20984908602AE14FF4BE
:102E50008061054800F091F94FF40061024805E0F7
:102E6000940B00202C000020000C024000F085F99B
:102E70000A208F4908608D480068401C8B49086013
:102E800010E18B480068022807D278208849086042
:102E900086480068401C8549086003E18448006852
:102EA000022818D2834840688349C1F80004814849
:102EB000C0688149C1F820047E4840697E49C1F854
:102EC00040047C48C0697C49C1F8600477480068C8
:102ED000401C76490860E5E04FF48061774800F0D7
:102EE0004CF94FF40061754800F045F90A2070492B
:102EF00008606E480068401C6C490860D2E06C486D
:102F00000068022807D2782069490860674800688D
:102F1000401C66490860C5E065480068022818D270
:102F2000644840686449C1F804046248C068624962
:102F3000C1F824045F4840695F49C1F844045D4812
:102F4000C0695D49C1F8640458480068401C57498D
:102F50000860A7E04FF48061584800F00CF94FF486
:102F60000061564800F009F90A20514908604F48AD
:102F70000068401C4D49086094E04D4800680228F4
:102F800007D278204A49086048480068401C4749F1
:102F9000086087E046480068022818D24548406823
:102FA0004549C1F808044348C0684349C1F82804AA
:102FB000404840694049C1F848043E48C0693E491C
:102FC000C1F8680439480068401C3849086069E065
:102FD0004FF48061394800F0CEF84FF40061374873
:102FE00000F0C9F80A203249086030480068401CE7
:102FF0002E49086056E02E480068022807D2782043
:103000002B49086029480068401C2849086049E0AD
:1030100027480068022819D2264840682649C1F886
:103020000C042448C0682449C1F82C042148406994
:103030002149C1F84C041F48C0691F49C1F86C04FC
:103040001F4801F033F9B920184908602AE000212F
:10305000002001F08EFC15480068401C13490860F0
:1030600020E018480068C0F34000002805D0002088
:1030700001F0B8FBBE200D49086013E05FF4FA319F
:10308000012001F076FC10480068400840000E491D
:103090000860FDF7B7FD00200449086002E0002049
:1030A0000249086001BD00002C0C0020100C00201B
:1030B000140C0020940B00202C000020000C024077
:1030C000A05E00080C0C0020200C0020F0B40022B0
:1030D0000023002400252A00102A4AD20125954009
:1030E0002B000D681D402C009C4240D10568032632
:1030F0001700FFB27F00BE40B543056005680E793A
:103100001700FFB27F00BE40354305600D79012DE9
:1031100002D00D79022D1AD1856803261700FFB25F
:103120007F00BE40B543856085684E791700FFB2C9
:103130007F00BE4035438560456801269640B54313
:10314000456045688E799640B6B235434560C5689E
:1031500003261700FFB27F00BE40B543C560C568B7
:10316000CE791700FFB27F00BE403543C560521CC8
:10317000B2E7F0BC70470183704741837047F0B4F9
:1031800000230024D2B211F00705EDB2AD0012FA0F
:1031900005F52B0089B2CD1010EB850589B2CE1054
:1031A00010EB8606366A0F2711F0070C5FFA8CFCCD
:1031B0005FEA8C0C17FA0CF7BE432E6289B2CD1071
:1031C00010EB85052D6A1D432C0089B2CD1010EB44
:1031D00085052C62F0BC704700B59DB001215FF4FD
:1031E000800000F0DBFB01214FF4807000F0F4FB65
:1031F0000120009003208DF8040000208DF80700C6
:1032000000A9DFF8C405FFF761FF0220009000A9C4
:10321000DFF8B405FFF75AFF1020009000A9DFF88F
:10322000A805FFF753FF2020009000A9DFF89805BC
:10323000FFF74CFF4020009000A9DFF88C05FFF756
:1032400045FF8020009000A9DFF87C05FFF73EFFD6
:103250001020009000A9DFF87405FFF737FF002069
:103260000D90DFF86C050E90DFF868050F900020D8
:10327000109054201190002012904FF48060139011
:103280004FF4006014904FF40050159000201690F9
:103290005FF4003017900020189001201990002052
:1032A0001A9000201B900DA9DFF82C0501F004FCFA
:1032B0000121DFF8240501F02BFC01221021DFF8A9
:1032C000180501F032FC002003905FF440300490B8
:1032D0004FF4804005904FF4A060069003A801F0E1
:1032E0008BFC0020079001208DF8200001208DF834
:1032F00021000020099000200A9000200B90072058
:103300008DF8300007A9DFF8D40401F04DFC032349
:1033100001220021DFF8C40401F08CFC0323022207
:103320000121DFF8B80401F085FC03230322042106
:10333000DFF8A80401F07EFC032304220521DFF856
:103340009C0401F077FC032305220621DFF88C049E
:1033500001F070FC032306220721DFF8800401F04E
:1033600069FC032307220E21DFF8700401F062FCE0
:103370000121DFF8680401F0E6FC0121DFF85C04BC
:1033800001F0D4FC0121DFF8540401F046FC3820A0
:103390008DF8080001208DF8090000208DF80A0042
:1033A00001208DF80B0002A801F0E7FC1DB000BD64
:1033B00080B50021DFF8200401F0AAFBDFF8140437
:1033C000DFF81C1408605420DFF81814086001218D
:1033D000DFF8040401F09CFB01BD80B5FFF7E8FFB6
:1033E0000121DFF8F80301F018FCDFF8F00301F029
:1033F00098FC01BD80B5DFF8F013DFF8DC0301F0C5
:10340000B5FB00F001F801BD2DE9F04186B00021C7
:10341000DFF8C80301F001FC002004000C2C0AD2E4
:10342000DFF8B0030E2101FB0400008800A921F899
:103430001400641CF2E7012005000C2D22D20020AC
:103440000400D5F10C0084421AD200A810EB44000D
:10345000408800A931F8141088420FD200A830F833
:103460001400804600A810EB4400408800A921F811
:10347000140000A810EB4400A0F80280641CE0E7F0
:103480006D1CDAE700200600012004000B2C05D299
:1034900000A830F814008619641CF7E70A20B6FB70
:1034A000F0F00700D1480780D148006850F00200D2
:1034B000CF490860002004000C2C09D2C5480E2119
:1034C00001FB0400408800A921F81400641CF3E704
:1034D000012005000C2D22D200200400D5F10C00A3
:1034E00084421AD200A810EB4400408800A931F8A9
:1034F000141088420FD200A830F81400804600A8AB
:1035000010EB4400408800A921F8140000A810EB3B
:103510004400A0F80280641CE0E76D1CDAE700209C
:103520000600012004000B2C05D200A830F814007E
:103530008619641CF7E70A20B6FBF0F00700AD48D7
:103540000780AB48006850F00400A94908600020DB
:1035500004000C2C09D29F480E2101FB0400808836
:1035600000A921F81400641CF3E7012005000C2DCC
:1035700022D200200400D5F10C0084421AD200A807
:1035800010EB4400408800A931F8141088420FD293
:1035900000A830F81400804600A810EB44004088D2
:1035A00000A921F8140000A810EB4400A0F8028044
:1035B000641CE0E76D1CDAE700200600012004002F
:1035C0000B2C05D200A830F814008619641CF7E70C
:1035D0000A20B6FBF0F0070087480780844800689F
:1035E00050F0080082490860002004000C2C09D229
:1035F00078480E2101FB0400C08800A921F81400BE
:10360000641CF3E7012005000C2D22D200200400E9
:10361000D5F10C0084421AD200A810EB4400408877
:1036200000A931F8141088420FD200A830F8140015
:10363000804600A810EB4400408800A921F814003F
:1036400000A810EB4400A0F80280641CE0E76D1CA9
:10365000DAE700200600012004000B2C05D200A8A8
:1036600030F814008619641CF7E70A20B6FBF0F066
:103670000700624807805E48006850F010005C490F
:103680000860002004000C2C09D252480E2101FBD6
:103690000400008900A921F81400641CF3E701204C
:1036A00005000C2D22D200200400D5F10C0084422C
:1036B0001AD200A810EB4400408800A931F8141079
:1036C00088420FD200A830F81400804600A810EB02
:1036D0004400408800A921F8140000A810EB440021
:1036E000A0F80280641CE0E76D1CDAE70020060009
:1036F000012004000B2C05D200A830F81400861914
:10370000641CF7E70A20B6FBF0F007003C4807808E
:103710003748006850F02000354908600020040058
:103720000C2C09D22B480E2101FB0400408900A972
:1037300021F81400641CF3E7012005000C2D22D2AF
:1037400000200400D5F10C0084421AD200A810EB2E
:103750004400408800A931F8141088420FD200A814
:1037600030F81400804600A810EB4400408800A9FF
:1037700021F8140000A810EB4400A0F80280641C9B
:10378000E0E76D1CDAE700200600012004000B2CA6
:1037900005D200A830F814008619641CF7E70A2047
:1037A000B6FBF0F00700174807801148006850F09A
:1037B00040000F4908600E48006850F001000C49B5
:1037C000086006B0BDE8F081000002400008024039
:1037D0004C200140880A0020106402400020014073
:1037E0001C64024014640240208000104C0C002035
:1037F000D40B00204E0C0020500C0020520C002056
:10380000540C0020560C002062F30F2262F31F427A
:10381000401810F0030308D0C91A1FD3DB0748BFB4
:1038200000F8012D28BF20F8022D130030B41446F3
:103830001546103928BF20E93C00FAD8490728BFAF
:1038400020E90C0048BF40F8042D890028BF20F86B
:10385000022D48BF00F8012D30BC7047C91818BFB1
:1038600000F8012DCB0728BF00F8012D704710B4D8
:1038700050F8041B81B102681218001D50F8043B77
:10388000DC0744BFA9F10104E31852F8044B43F8E4
:10389000044B091FF9D1EBE710BC7047F0B40021CD
:1038A00000220023022400250226DFF888713F68E9
:1038B00017F00C0739000F00002F04D0042F06D09A
:1038C000082F08D03CE0DFF8747107603BE0DFF8B8
:1038D0007071076037E0DFF860713F68C7F38057A9
:1038E0003D00DFF854713F6817F03F073E00002DA0
:1038F0000DD0DFF84C71B7FBF6F7DFF83CC1DCF810
:1039000000C0CCF3881C0CFB07F73B000CE0DFF891
:103910002C71B7FBF6F7DFF820C1DCF800C0CCF360
:10392000881C0CFB07F73B00DFF80C713F68C7F3FE
:1039300001477F1C7F003C00B3FBF4F7076002E007
:10394000DFF8F8700760DFF8EC703F6817F0F007F9
:1039500039000909DFF8EC70CF5D3A000768D740FD
:103960004760DFF8D0703F6817F4E0573900890AE4
:10397000DFF8D070CF5D3A004768D74087602D4FA1
:103980003F6817F460473900490BDFF8B870CF5D26
:103990003A004768D740C760F0BC7047C9B20029F9
:1039A00005D0294A12680243274B1A6004E0264AD0
:1039B00012688243244B1A607047C9B2002905D0AF
:1039C000224A12680243214B1A6004E01F4A12681F
:1039D00082431E4B1A607047C9B2002905D01C4AA9
:1039E000126802431A4B1A6004E0194A12688243B3
:1039F000174B1A607047C9B2002905D0154A1268E2
:103A00000243144B1A6004E0124A12688243114BBD
:103A10001A607047C9B2002905D00F4A12680243E4
:103A20000D4B1A6004E00C4A126882430A4B1A607C
:103A30007047000008380240043802400024F400B7
:103A4000001BB70010000020303802404038024010
:103A500044380240203802402438024010B50400A7
:103A6000DFF83003844208D101210120FFF7D2FFA3
:103A700000210120FFF7CEFFADE0B4F1804F08D167
:103A800001210120FFF7B7FF00210120FFF7B3FF5D
:103A9000A1E0DFF80403844208D101210220FFF7EE
:103AA000AAFF00210220FFF7A6FF94E0DFF8EC0256
:103AB000844208D101210420FFF79DFF002104204A
:103AC000FFF799FF87E0DFF8D802844208D101218F
:103AD0000820FFF790FF00210820FFF78CFF7AE015
:103AE000DFF8C002844208D101211020FFF783FFD4
:103AF00000211020FFF77FFF6DE0DFF8AC02844269
:103B000008D101212020FFF776FF00212020FFF7B8
:103B100072FF60E0DFF89402844208D101210220A4
:103B2000FFF778FF00210220FFF774FF53E0DFF872
:103B3000800284420AD101215FF48030FFF76AFFDE
:103B400000215FF48030FFF765FF44E0DFF8640296
:103B500084420AD101215FF40030FFF75BFF0021AE
:103B60005FF40030FFF756FF35E0DFF84C02844287
:103B70000AD101215FF48020FFF74CFF00215FF4A0
:103B80008020FFF747FF26E0DFF83002844208D1AB
:103B900001214020FFF72FFF00214020FFF72BFFDE
:103BA00019E0DFF81C02844208D101218020FFF7D0
:103BB00022FF00218020FFF71EFF0CE08148844295
:103BC00009D101214FF48070FFF715FF00214FF458
:103BD0008070FFF710FF10BD002203881A006D4BA4
:103BE00098420ED0714B98420BD0B0F1804F08D064
:103BF000694B984205D0694B984202D0684B984275
:103C000004D14FF68F731A404B881A43654B984284
:103C100007D0654B984204D04FF6FF431A400B89FA
:103C20001A4302804B68C3620B880385594B984244
:103C300002D05E4B984201D18B7A038601238382A6
:103C40007047C1627047C9B2002904D0028852F09F
:103C50008002028004E002884FF67F731A400280DF
:103C60007047C9B2002904D0028852F001020280D4
:103C700004E002884FF6FE731A400280704770B469
:103C8000002300240022058C4FF6EF763540058492
:103C9000058C2C0085882A00058B2B0048F6FF75C3
:103CA0002B404FF6FF452B400D8853EA05234FF676
:103CB000DF752C408D8954EA05144D8854EA0514AB
:103CC000344DA84202D0394DA84217D14FF67F7526
:103CD0002C40CD8954EA05144FF6BF752C408D88D1
:103CE00054EA05144FF6FF352A404FF2FF752A407B
:103CF0000D8A52EA85024D8A52EA85028280038348
:103D00008D688563048470BC704770B40023002400
:103D10000022058C4FF6FF6635400584058C2C008B
:103D200085882A00858B2B004FF68F752B404FF628
:103D3000FC752B400D882B434FF6FF552C408D8989
:103D400054EA05244D8854EA0524124DA84202D0B5
:103D5000164DA84217D14FF2FF752C40CD8954EA79
:103D600005244FF6FF352C408D8854EA05244EF685
:103D7000FF752A404DF6FF752A400D8A52EA05125A
:103D80004D8A52EA0512828083838D68C56304845C
:103D900070BC704700000140000400400008004073
:103DA000000C0040001000400014004000040140DE
:103DB000004001400044014000480140001800401C
:103DC000001C0040002000400022038B1A004FF22C
:103DD000FF731A4052EA0122028370470022838B4C
:103DE0001A004FF6F7731A400A4382837047D2B223
:103DF000002A03D083890B43838102E083898B43AC
:103E00008381704730B40200002000230024158A0B
:103E10000D402B0095890D402C009BB2002B05D046
:103E2000A4B2002C02D00125280001E000252800C2
:103E3000C0B230BC704789B2CA4302827047F8B53D
:103E400004000D0016001F00ADB2602D08D13B002C
:103E50009BB20122310089B2200000F038F807E05F
:103E60003B009BB20122310089B2200000F013F820
:103E7000290089B2200000F005F8208950F00700E1
:103E80002081F1BD002203891A004FF68F731A407A
:103E90000A4302817047F0B400240025068C4FF6D7
:103EA000FE773E400684068B3400068C35004FF6C4
:103EB0000C76344052EA031634434FF6F57635401B
:103EC00051F00106354304830584F0BC7047F0B41B
:103ED000002500260024078C4FF6EF7C1CEA07071C
:103EE0000784078B3D00078C3E000F013C0040F625
:103EF000FF473D4055EA033555EA02254FF65F7707
:103F00003E4054F010073E4305830684F0BC7047E2
:103F1000F0B411F5A5740D0000273B009BB2082BEF
:103F200026DA671BBF1015EB47073E00378880B2C3
:103F3000B84201D235000DE0378880B2874201D205
:103F4000340007E03788578077889780771A7F108A
:103F500017800DE0671B7F10012F07D12F88578036
:103F6000278897806F1A7F10178001E05B1CD5E7C8
:103F7000F0BC7047F0B583B004000D003848B0F8CD
:103F80004A01A4B2A04237D235480088A4B2844284
:103F90002ED200AA2900200080B2FFF7B9FFBDF899
:103FA0000400A4B2844204D1BDF800002838060001
:103FB00025E0A4B2BDF80400201A00F027FF070096
:103FC000BDF80200BDF80410401A00F01FFF010008
:103FD000380000F043FF234900F0BEFF01F028F84D
:103FE0000600BDF8000028380A2101FB006606E043
:103FF00047F6FF70060002E04FF6FF700600300043
:10400000FEBD2DE9F041040017481849098820F841
:10401000114016480088401C144908801348008845
:104020000C2802D100201149088000200600002041
:1040300005000C2D05D20C4830F8150086196D1CB2
:10404000F7E70C20B6FBF0F007000549380080B216
:10405000FFF790FF80460FFA88F84046BDE8F081F0
:10406000E859000800002041B80B0020680C00202F
:1040700010B403000800584000242100C9B20829E8
:1040800007DA040602D592EA400000E04000491C2D
:10409000F4E7C0B210BC704700B587B04FF4805051
:1040A000009001208DF8040000208DF80600022009
:1040B0008DF8050000208DF8070000A96348FFF780
:1040C00005F807220A216148FFF759F807220B215A
:1040D0005E48FFF754F84FF48060009002208DF89E
:1040E000040002208DF8050000208DF80600012054
:1040F0008DF8070000A95548FEF7E8FF4FF400606F
:10410000009000A95148FEF7E1FF514800F0B2FFCE
:1041100001215FF48020FFF750FC4FF4964003909C
:104120000020ADF810000020ADF812000020ADF81E
:1041300014000020ADF818000C20ADF8160003A9FB
:10414000434800F0E9FF40F22551414801F0F1F801
:10415000012240F225513E4801F07AF801213C4805
:1041600001F060F827208DF8080000208DF8090084
:1041700001208DF80A0001208DF80B0002A800F044
:10418000FCFD002000F021F800F007F84FF480510A
:104190002E48FEF7F2FF07B000BD70B54FF49674DD
:1041A00000252C4E2A0021003000FFF72DFB40F2A5
:1041B0002B10294908800020284908800020284920
:1041C000088000202749088070BD10B50400E4B2C3
:1041D000210089B21E4801F033F840211C4801F04B
:1041E00062F80028F9D010BD70B504000D0000265B
:1041F0004FF480511548FEF7BEFFADB2AE420CD26F
:10420000315D89B2124801F01BF8761C402110483C
:1042100001F049F80028F0D1F8E74FF480510B483D
:10422000FEF7ABFF70BD80B540F22551084801F0A4
:1042300049F8002804D040F22551054801F079F8EA
:10424000034801F001F801BD000000000004024035
:10425000004800409408002024000020600C00204A
:10426000620C0020640C002000B583B02020009078
:1042700001208DF8040000208DF8060002208DF842
:10428000050000208DF8070000A95248FEF71EFF28
:104290008020009000A95048FEF718FF07BD80B5A8
:1042A000FFF7E2FF4D4800F001F801BD2DE9F047AE
:1042B00004005FF07F0A5FF012095FF025085FEAF3
:1042C00088085FEAC9095FEA4A0A00200500062D4E
:1042D00017D220213F48FEF750FF5FEA086004D55F
:1042E00080213D48FEF747FF03E080213A48FEF772
:1042F00044FF20213748FEF73EFF5FEA48086D1C67
:10430000E5E700200500052D17D220213148FEF7F2
:1043100034FF5FEA096004D580212F48FEF72BFFA8
:1043200003E080212C48FEF728FF20212948FEF7D2
:1043300022FF5FEA49096D1CE5E700200500032D17
:1043400023D27F20824600200600072E1BD2202188
:104350002048FEF712FF5FEA0A6004D580211E485C
:10436000FEF709FF03E080211B48FEF706FF20212E
:104370001848FEF700FF20211648FEF7FEFE5FEA10
:104380004A0A761CE1E76D1CD9E7002005000C2DD8
:104390001ED234F81500070000200600102E15D29A
:1043A00020210C48FEF7E9FE380404D580210A4894
:1043B000FEF7E1FE03E080210748FEF7DEFE202144
:1043C0000448FEF7D8FE7F00761CE7E76D1CDEE7A9
:1043D000BDE8F0870008024000100240A05E00081F
:1043E00000B583B08020009001208DF804000020EB
:1043F0008DF8060002208DF8050000208DF80700DA
:1044000000A9DFF86C06FEF761FE4FF480700090A3
:1044100000A9DFF85C06FEF759FE4FF4007000902B
:1044200000A9DFF84C06FEF751FE0420009000A919
:10443000DFF84006FEF74AFE0820009000A9DFF8EA
:104440003406FEF743FE1020009000A9DFF8240692
:10445000FEF73CFE07BD00B58BB001210220FFF73F
:10446000ACFA01210820FFF7A8FA01210420FFF788
:1044700095FA4FF4C070049002208DF814000320C8
:104480008DF8150000208DF8160001208DF817001A
:1044900004A9DFF8E405FEF719FE02220721DFF880
:1044A000D805FEF76CFE02220821DFF8CC05FEF7E6
:1044B00066FEDFF8C80500684008DFF8C415B0FBE9
:1044C000F1F0401EDFF8BC15088040F2CF7002907A
:1044D000DFF8B0050088ADF804000020ADF80C004E
:1044E0000020ADF8060001A9DFF89C05FFF774FB7A
:1044F0006020ADF818000020ADF81A00DFF88C0538
:10450000008808900020ADF8240006A9DFF878059F
:10451000FFF7B5FB0821DFF87005FFF755FC6020B9
:10452000ADF818000020ADF81A00DFF86405008827
:1045300008900020ADF8240006A9DFF84C05FFF72D
:10454000E4FB0821DFF84005FFF748FC0121DFF814
:104550003805FFF778FB0121DFF82C05FFF781FB19
:1045600000200290DFF8140500684008DFF82415E9
:10457000B0FBF1F0401EADF804000020ADF80C00D7
:104580000020ADF8060001A9DFF80C05FFF724FBB9
:1045900000220121DFF80005FFF729FC0121DFF8E7
:1045A000F804FFF748FC0021DFF8EC04FFF759FBA3
:1045B00032208DF8000000208DF8010000208DF8D9
:1045C000020001208DF8030000A800F0D6FB0BB01C
:1045D00000BD70B504000D00142000FB04F00600BF
:1045E0003100DFF8A404FFF72CFB05FB04F1DFF832
:1045F000A804FFF726FB70BD80B5DFF8A0040068B3
:10460000012802D1002000F0EDF8DFF894040068E2
:10461000012802D1012000F0E5F80121DFF878043B
:10462000FFF709FCDFF874040068DFF87414096808
:104630000843002804D10021DFF85C04FFF711FBD8
:1046400001BD80B5FFF7CCFE0321002000F04CF83F
:104650000021002000F01DF80121012000F044F8A5
:104660000021012000F015F8FFF7F5FE002000F012
:10467000B9F8012000F0B6F86420DFF828140860CB
:1046800001BD000000BF00BF00BF00BF00BF00BFF2
:10469000704738B504000D00E4B2002C10D1EDB223
:1046A000002D05D18021DFF8C803FEF766FD04E088
:1046B0008021DFF8BC03FEF75EFDFFF7E3FF12E0A9
:1046C000E4B2012C0FD1EDB2002D05D10421DFF8A9
:1046D000A403FEF752FD04E00421DFF89803FEF77F
:1046E0004AFDFFF7CFFF31BD38B504000D00E4B23D
:1046F000002C3FD1EDB2012D0CD14FF40071DFF849
:104700007003FEF73AFD4FF48071DFF86403FEF7A3
:1047100034FD66E0EDB2022D0CD14FF40071DFF8EC
:104720005003FEF72AFD4FF48071DFF84403FEF7D3
:1047300022FD56E0EDB2032D0CD14FF40071DFF8ED
:104740003003FEF718FD4FF48071DFF82403FEF705
:1047500014FD46E0EDB2042D43D14FF40071DFF8B3
:104760001003FEF708FD4FF48071DFF80403FEF735
:1047700002FD36E0EDB2012D0AD11021DFF8F4027E
:10478000FEF7FBFC0821DFF8EC02FEF7F6FC28E060
:10479000EDB2022D0AD11021DFF8D802FEF7EDFCB0
:1047A0000821DFF8D002FEF7E6FC1AE0EDB2032D97
:1047B0000AD11021DFF8BC02FEF7DDFC0821DFF88A
:1047C000B402FEF7DAFC0CE0EDB2042D09D11021A1
:1047D000DFF8A002FEF7CFFC0821DFF89802FEF711
:1047E000CAFC31BD10B50400E4B2002C20D1AE48A3
:1047F00000884FF6FF610840AB4908800020A749B8
:104800000860AA4800884FF6FE710840A749088052
:104810004FF6FE70A64908809F4800884FF6FE714B
:1048200008409D49088004210020FFF75DFF22E039
:10483000E4B2012C1FD19C4800884FF6EF7108406C
:1048400099490880002096490860984800884FF6EA
:10485000FE710840954908804FF6FE709449088023
:104860008D4800884FF6FE7108408B49088004216E
:104870000120FFF739FF10BD70B504000D00E4B250
:10488000002C39D103210020FFF72EFF002D05D089
:10489000290084480068FFF79CFE0CE05FF0FF30C1
:1048A00080490968B0FBF1F0401E060031007D48E8
:1048B0000068FFF78EFE00210020FFF7EAFE7A482D
:1048C000008850F48070784908800120734908609E
:1048D0000020784908604FF6FE70754908807348DB
:1048E000008850F00100714908806B48008850F042
:1048F0000100694908803BE0E4B2012C38D1012174
:104900000120FFF7F1FE002D05D029006548006861
:10491000FFF75FFE0CE05FF0FF3062490968B0FB13
:10492000F1F0401E060031005E480068FFF751FEBE
:1049300000210120FFF7ADFE5B48008850F0100019
:1049400059490880012056490860002059490860EB
:104950004FF6FE70564908805448008850F0010018
:10496000524908804C48008850F001004A490880AC
:1049700070BD70B504000D00E4B2002C39D10321E4
:104980000020FFF7B1FE002D05D029004548006842
:10499000FFF71FFE0CE05FF0FF3042490968B0FBF3
:1049A000F1F0401E060031003E480068FFF711FE9E
:1049B00001210020FFF76DFE3B48008850F4807015
:1049C00039490880012035490860002039490860CC
:1049D0004FF6FE70364908803448008850F00100D8
:1049E000324908802C48008850F001002A4908808C
:1049F0003BE0E4B2012C38D101210120FFF774FE25
:104A0000002D05D0290027480068FFF7E2FD0CE0E3
:104A10005FF0FF3023490968B0FBF1F0401E06004B
:104A2000310020480068FFF7D4FD01210120FFF785
:104A300030FE1D48008850F010001B4908800120FE
:104A40001749086000201B4908604FF6FE7018499E
:104A500008801648008850F00100144908800E486C
:104A6000008850F001000C49088070BD0000000073
:104A700000040240000C0240000802402000002018
:104A8000002D3101660C00200004004026000020AB
:104A90002800002040420F00000C00402C0C002099
:104AA000300C0020340C0020200400400C0C00408E
:104AB000100C0040240C004010B4002203681A00BF
:104AC000354B1A400B68CC6823434C6923438C69EF
:104AD0002343CC6923430C6A23434C6A23438C6AE7
:104AE00023434C6B23438C6B23431A43026043697B
:104AF0001A00D208D200CB6A0C6B23431A434261DE
:104B00000B6943604B6883608B68C36010BC70475F
:104B1000C9B2002904D0026852F00102026003E029
:104B20000268520852000260704710B40B060BD5A1
:104B3000D2B2002A04D0436953F08003436103E0FA
:104B4000436933F08003436180290DD0D2B2002A3B
:104B500005D0036811F01E042343036004E00368DA
:104B600011F01E04A343036010BC7047094B984228
:104B700002D20A4B1A0001E0094B1A008B0003D540
:104B8000084B0B40D36002E0064B0B40936070472C
:104B900000000000106402403F801CF000600240F2
:104BA000006402407D0F7D0F30B400230022446872
:104BB00023006B4C23400C790D6855EA04242343F1
:104BC000436084682300674C23400C69CD682C4304
:104BD0008D682C434D7954EA450423438360C46AAD
:104BE000230033F470030C7D641E2243D2B253EAD7
:104BF0000253C36230BC704700215B4A1268110047
:104C00005A4A1140026843681A4383681A43C368CA
:104C10001A431143544A11607047C9B2002904D0A5
:104C2000826852F00102826003E0826852085200FA
:104C300082607047F0B400250024C9B20A2916DB4F
:104C4000C66835000726B1F10A075FF0030C0CFBBC
:104C500007F7BE403400A543DBB2B1F10A060327D3
:104C60007E4313FA06F634002543C56011E0066959
:104C700035000726032707FB01F7BE403400A54394
:104C8000DBB2032606FB01F613FA06F634002543D1
:104C90000561D2B2072A14DA466B35001F26571E6B
:104CA0005FF0050C0CFB07F7BE403400A543C9B20A
:104CB000561E05277E4311FA06F634002543456348
:104CC0002DE0D2B20D2A14DA066B35001F26D71F4D
:104CD0005FF0050C0CFB07F7BE403400A543C9B2DA
:104CE000D61F05277E4311FA06F6340025430563D7
:104CF00015E0C66A35001F26B2F10D075FF0050CFE
:104D00000CFB07F7BE403400A543C9B2B2F10D0653
:104D100005277E4311FA06F634002543C562F0BC30
:104D20007047816851F0804181607047C9B20029A5
:104D300004D0826852F48072826003E0826832F4A8
:104D4000807282607047C9B2002904D0826852F430
:104D50000072826003E0826832F400728260704701
:104D6000FFFEFFFCFDF7FFC004230140E030FCFF25
:104D70001F4901431F4A1160704770B4002300218E
:104D80000F22C478002C21D01A4C246814F4E0645B
:104D9000D4F5E064240A2300D3F104042100D2B244
:104DA0001A4144788C4023008478144023431B012B
:104DB000114C05782B550124057815F01F05AC40E2
:104DC0000E4D0678761145F8264009E00124057855
:104DD00015F01F05AC400A4D0678761145F82640BF
:104DE00070BC7047074A0A400243074B1A6070477D
:104DF0000000FA050CED00E000E400E000E100E056
:104E000080E100E080FFFF1F08ED00E0002840F196
:104E10000780F446404200F003F850F0004060473D
:104E20000AD0B0FA80F18840D1F19D01C90502068F
:104E300072F1004241EB1020704750F8041B61B141
:104E400050F8042BD30744BFA9F101039A1800239B
:104E500042F8043B091FFAD1EFE7704710B5FF2372
:104E600013EAD0541DBF13EAD1529C429A4239E052
:104E7000A41ADA0780EA0103134042EA012142EA58
:104E80000020421A3CBF641E01EB4202090AB2FB39
:104E9000F1FE01FB1E221202B2FBF1F001FB102217
:104EA0006EF30F201202B2FBF1FE4EEA00207F34B7
:104EB00006DDFE2C24DA53EA500050EBC45010BD3E
:104EC000D4F1020401FB1E2240F08071192C1DDC7C
:104ED00021FA04F0C4F12004A140114371F1004211
:104EE000584110BD9C421ABF03EAD1529A420FE0CA
:104EF00080EA010E0EF00043400004D0490016D1B4
:104F000043F0FF4010BD490008BFD343180010BD57
:104F10009C4205D1D21AF7D001F00041484010BDA3
:104F20004A0212BF0846484000F0004010BD4AB98E
:104F30000902B1FA81F2914044B1A418C00140F0D5
:104F400000409EE7C90141F0004152420002B0FA20
:104F500080F4A040141B94E7FF2212EAD05C1DBF2E
:104F600012EAD153944593422BE09C44D30780EA44
:104F700001021A4043EA002043EA0121A1FB00306C
:104F8000410038BF40007CF17F010BDBFE294ADA8B
:104F90005B0842EAC15153EA006373F1004C51EBE4
:104FA00010207047D1F1080CDCF120012FDB5B08E9
:104FB00010FA01F10B4373F1004120FA0CF050415B
:104FC000704794451CBF02EAD153934280EA010224
:104FD00002F000421DD0400019D0490017D05BB943
:104FE000634514D00902B1FA81F39940BCEB030C7C
:104FF000C00140F00040C1E70002B0FA80FC10FAA6
:105000000CF0B3EB0C0CC90141F00041B6E7100005
:10501000704740000AD0490008D010F1807F94BF4B
:1050200011F1807F02E042F0FF407047D0437047AB
:105030004100090E7F3915D4D1F11F0114D440006D
:1050400007D2C00140F00040C84048BF6FF00040A8
:105050007047C00140F00040C8404CBF4FF00040D6
:10506000404270470020704700424FF0004058BF58
:10507000C043704710B504006348844208D1012141
:105080001020FEF7C7FC00211020FEF7C3FC42E011
:105090005E4884420AD101215FF40030FEF7ABFC88
:1050A00000215FF40030FEF7A6FC34E0584884424B
:1050B0000AD101215FF48020FEF79DFC00215FF4FE
:1050C0008020FEF798FC26E0524884420AD1012154
:1050D0005FF40020FEF78FFC00215FF40020FEF754
:1050E0008AFC18E04C4884420AD101215FF4801008
:1050F000FEF781FC00215FF48010FEF77CFC0AE0E3
:105100004648844207D101212020FEF783FC00217C
:105110002020FEF77FFC10BD2DE9F04385B0040090
:105120000D005FF00009002600275FF00008A88945
:105130000028208A814639F44059E88850EA090954
:10514000A4F81090A0898146354810EA0909A8887A
:10515000298908436989084350EA0909A4F80C9091
:10516000A08A814639F44079A88950EA0909A4F84F
:10517000149000A8FEF792FB2348844202D02748EF
:10518000844202D10398060001E002980600A0893B
:10519000000408D5192000FB06F029684900B0FB7F
:1051A000F1F0070007E0192000FB06F029688900EC
:1051B000B0FBF1F007006420B7FBF0F0000181467E
:1051C0005FEA1910642101FB10708046A089000479
:1051D0000AD55FEAC80032306421B0FBF1F010F06C
:1051E000070050EA090909E05FEA0810323064213B
:1051F000B0FBF1F010F00F0050EA0909A4F8089094
:1052000005B0BDE8F08300000010014000440040FC
:1052100000480040004C0040005000400014014095
:10522000F3E9FFFFC9B2002904D0828952F4005289
:10523000828104E082894DF6FF731A4082817047B3
:10524000CA05D20D828070478088C005C00D7047A6
:10525000F0B4002300240025002689B240F66A1726
:10526000B94206000F00FFB27F09FFB23B0089B2CE
:1052700011F01F073C000127A7403D00012B01D181
:105280000C3604E0022B01D1103600E01436D2B205
:10529000002A03D037682F43376002E03768AF43F6
:1052A0003760F0BC70470200002089B2B1F5007F82
:1052B00013880B4202D00123180001E000231800DC
:1052C000C0B2704770B40200002300250024002003
:1052D00089B240F66A16B1420E00F6B27609F6B20D
:1052E000340089B211F01F063500012616FA05F5C3
:1052F000012C02D19689354006E0022C02D1168A93
:10530000354001E0968A354089B20E0AB6B23300C4
:10531000012616FA03F316883340002D04D0002B23
:1053200002D00126300001E000263000C0B270BC7F
:10533000704710B40022002389B240F66A14A142DB
:1053400089B20C0A22000124944023009BB2DC4362
:10535000048010BC7047000000B583B04FF40070AB
:10536000009001208DF8040000208DF80600022036
:105370008DF8050000208DF8070000A9DFF8B404BF
:10538000FDF7A4FE4FF48060009000A9DFF8A404AC
:10539000FDF79CFE4FF40060009000A9DFF8940434
:1053A000FDF794FE07BD00B587B0DFF88C04FEF76B
:1053B00055FBDFF88804FEF751FBDFF88404FEF7A5
:1053C0004DFBDFF88004FEF749FBDFF87C04FEF7B5
:1053D00045FBDFF87804FEF741FB01210120FEF7D1
:1053E000FBFA01210420FEF7E8FA01211020FEF764
:1053F000E4FA01210220FEF7EFFA01215FF4803088
:10540000FEF7EAFA01214020FEF7D7FA20200390A8
:1054100002208DF8100003208DF8110000208DF877
:10542000120000208DF8130003A9DFF82404FDF713
:105430004DFE4FF48040039003A9DFF81804FDF7F8
:1054400045FE4FF48050039003A9DFF8E803FDF711
:105450003DFE4020039003A9DFF8FC03FDF736FE74
:105460004FF40070039003A9DFF8E403FDF72EFE6C
:1054700001220921DFF8D803FDF781FE02220C2169
:10548000DFF8B003FDF77BFE03220621DFF8C80337
:10549000FDF775FE03220521DFF8B403FDF76FFE6B
:1054A00009220E21DFF8AC03FDF769FE4FF6FF700D
:1054B00001900020ADF800000020ADF808000020A9
:1054C000ADF8020000A9DFF87003FEF785FB0023AA
:1054D00000225021DFF86003FEF7B1FC0121DFF864
:1054E0005803FEF7BEFB4FF6FF7001900020ADF8A9
:1054F00000000020ADF808000020ADF8020000A96F
:10550000DFF83803FEF768FB002300225021DFF8A4
:105510002C03FEF794FC0121DFF82003FEF7A1FB2A
:105520004FF6FF7001900020ADF800000020ADF8AC
:1055300008000020ADF8020000A9DFF80803FEF71C
:105540004BFB002300225021DFF8F802FEF777FC26
:105550000121DFF8F002FEF784FB4FF6FF700190A7
:105560000020ADF800000020ADF808000020ADF8E4
:10557000020000A9B448FEF72FFB002300225021AF
:10558000B148FEF75CFC0121AF48FEF76AFB4FF61D
:10559000FF7001900020ADF800000020ADF8080079
:1055A0000020ADF8020000A9A848FEF715FB002373
:1055B00000225021A548FEF742FC0121A348FEF736
:1055C00050FB4CF250300190A44800684008A449B8
:1055D000B0FBF1F0401EADF800000020ADF808006F
:1055E0000020ADF8020000A99548FEF7F5FA012267
:1055F00001219348FEF7FBFB01219148FEF731FBA7
:1056000036208DF8140000208DF8150001208DF84B
:10561000160001208DF8170005A8FFF7AEFB07B0B4
:1056200000BD80B501218648FEF7ECFB002829D09B
:105630008C4800688C49086000208A4908608B48C3
:1056400000688949C8600020884908608848006867
:10565000854988610020864908608648006882493B
:10566000C861002083490860834800687E49086259
:1056700000208149086001208049086001217048AC
:10568000FEF7D9FB01BD80B5FFF766FE4FF4007150
:105690006848FDF772FD4FF480616648FDF76DFDC7
:1056A0004FF400616348FDF768FDFFF77CFE01BD24
:1056B00038B57348006801284CD100207049086053
:1056C0000020050000200400E4B2102C0ADA0722B2
:1056D0002900C9B26B48E4B2205CFEF7C9FC0500A2
:1056E000641CF1E76748007CEDB2A84232D16548FE
:1056F00000796449497910EB01206249897910EBFE
:105700000140594948605F48C0795E49097A0902F9
:1057100089B208185B49497A10EB01405249886008
:105720005848807A5749C97A090289B208185549F8
:10573000097B10EB01404C4908615248407B5149BC
:10574000897B090289B208184E49C97B10EB0140D8
:105750004549486131BD10B549480068012866D007
:105760000020494908604948FFF76EFD0400484899
:105770000068401C464908604548006801280AD076
:10578000022811D0032812D0042813D011281ED0CB
:10579000122825D038E03B480470E4B2FF2C02D038
:1057A00000203B49086042E0364844703FE03548FD
:1057B00084703CE03348C470E4B236480460354835
:1057C0000068102802D00020314908602FE03148DD
:1057D0000068642803D22B482E4909680C5426E03F
:1057E0002C480068401C642804D2264829490968CE
:1057F00008184470002026490860E4B20D2C02D13C
:1058000001201F49086012E021480068642805D281
:105810001C481F490968081800F8014C1D48006819
:105820001B490968884202D200201949086010BD4E
:1058300000000000000C0240000001400008004091
:1058400000100040000401400040014000180040EA
:105850000010024000040240000802402000002026
:1058600040420F0024400140940B002024180040C7
:10587000240800402404014024000140480C00207A
:10588000440C0020300B00203C0C00200044004061
:10589000380C0020400C002000B587B00722022100
:1058A0004A48FDF76CFC072203214848FDF767FCD6
:1058B0000420019002208DF8080002208DF80900D4
:1058C00000208DF80A0001208DF80B0001A93F4847
:1058D000FDF7FCFB0820019001A93C48FDF7F6FB11
:1058E0003B48FFF7C7FB01215FF40030FEF765F886
:1058F0004FF4964003900020ADF810000020ADF862
:1059000012000020ADF814000020ADF818000C20A3
:10591000ADF8160003A92E48FFF7FEFB012240F266
:1059200025512B48FFF794FC01212948FFF77AFC09
:1059300026208DF8000000208DF8010001208DF850
:10594000020001208DF8030000A8FFF716FA0020DE
:1059500000F01AF800F002F807B000BD70B5C824D6
:1059600000251C4E2A0021003000FDF74DFFC72006
:10597000194908800020194908800020184908802A
:1059800000201849088070BD10B50400E4B2210061
:1059900089B20F48FFF754FC40210D48FFF783FC04
:1059A0000028F9D010BD80B540F225510848FFF716
:1059B00089FC002806D0FFF7CEFE40F225510448AE
:1059C000FFF7B7FC0248FFF73FFC01BD00000240B3
:1059D00000440040C00900202A0000206A0C00207A
:1059E0006C0C00206E0C0020740F6C0F630F5A0FAC
:1059F000500F470F3C0F320F260F1B0F0E0F020FD9
:105A0000F40EE70ED80ECA0EBA0EAA0E9A0E890E22
:105A1000770E650E520E3F0E2B0E160E010EEB0D7D
:105A2000D40DBD0DA50D8D0D740D5A0D400D250D18
:105A3000090DED0CD00CB30C950C770C580C380CF0
:105A4000180CF70BD60BB50B930B710B4E0B2B0BE6
:105A5000070BE30ABF0A9B0A760A510A2C0A060AB8
:105A6000E109BB0995096F0949092409FE08D8080D
:105A7000B2088C08660841081C08F607C4079F078F
:105A80007A07550731070D07E906C606A306810602
:105A90005F063D061C06FB05DB05BB059B057D057A
:105AA0005F05410524050705EB04CF04B4049A04FF
:105AB000800466044D0434041C040404ED03D6037E
:105AC000C003AA03950392037D03690355034203B0
:105AD0002F031D030B03F902E802D702C702B60227
